:020000040800F2
:10000000780600208901000891010008930100088A
:100010009501000897010008990100080000000000
:100020000000000000000000000000009B0100082C
:100030009D010008000000009F010008A1010008C8
:10004000A3010008A3010008A3010008A301000800
:10005000A3010008A3010008A3010008A3010008F0
:10006000A3010008A3010008A3010008A3010008E0
:10007000A3010008A3010008A3010008A3010008D0
:10008000A3010008A3010008A3010008A3010008C0
:10009000A3010008A3010008A3010008A3010008B0
:1000A000A3010008A3010008A3010008A3010008A0
:1000B000A3010008A3010008A3010008A301000890
:1000C000A3010008A3010008A3010008A301000880
:1000D000A3010008A3010008A3010008A301000870
:1000E000A3010008A3010008A301000800F002F822
:1000F00000F03AF80AA090E8000C82448344AAF188
:100100000107DA4501D100F02FF8AFF2090EBAE885
:100110000F0013F0010F18BFFB1A43F0010318473B
:100120001804000038040000103A24BF78C878C1D1
:10013000FAD8520724BF30C830C144BF04680C60ED
:10014000704700000023002400250026103A28BF35
:1001500078C1FBD8520728BF30C148BF0B60704739
:100160001FB51FBD10B510BD00F031F81146FFF7E7
:10017000F7FF00F06BF900F04FF803B4FFF7F2FF60
:1001800003BC00F057F800000948804709480047C1
:10019000FEE7FEE7FEE7FEE7FEE7FEE7FEE7FEE737
:1001A000FEE7FEE704480549054A064B7047000094
:1001B0002D030008ED0000087800002078060020DC
:1001C000780200207802002070477047704775461B
:1001D00000F02CF8AE4605006946534620F00700B3
:1001E000854618B020B5FFF7DDFFBDE820404FF091
:1001F00000064FF000074FF000084FF0000B21F011
:100200000701AC46ACE8C009ACE8C009ACE8C009DD
:10021000ACE8C0098D46704710B50446AFF30080C6
:100220002046BDE81040FFF7A8BF00000048704717
:100230001400002001491820ABBEFEE72600020092
:10024000704710B500F002F810BD00000CB500209A
:10025000019000903348006840F4803031490860D4
:1002600000BF3048006800F4003000900198401C46
:100270000190009818B90198B0F5A06FF1D1294804
:10028000006800F4003010B10120009001E000206F
:1002900000900098012843D12348006840F01000E6
:1002A000214908600846006820F0030008600846FD
:1002B000006840F0020008601A4840681949486028
:1002C0000846406848600846406840F480604860DE
:1002D0000846406820F47C1048600846406840F4B6
:1002E000E81048600846006840F08070086000BF71
:1002F0000C48006800F000700028F9D009484068F8
:1003000020F00300074948600846406840F00200BA
:10031000486000BF0348406800F00C000828F9D18D
:100320000CBD0000001002400020024010B5134830
:10033000006840F001001149086008464068104913
:1003400008400E494860084600680E4908400B49BD
:1003500008600846006820F480200860084640686D
:1003600020F4FE0048604FF41F008860FFF769FF2B
:100370004FF000600449086010BD0000001002400A
:100380000000FFF8FFFFF6FE08ED00E011490968E4
:100390004FF47A72B1FBF2F1491E4FF0E022516145
:1003A000002191611146096941F0050111610021A7
:1003B00008E000BF4FF0E022126902F48032002A08
:1003C000F8D0491C8142F4D300214FF0E0221161A2
:1003D00070470000000000201A48806940F01800B3
:1003E00018498861002018490860091D0860081F25
:1003F000006840F08070091F08600846006840F0FF
:1004000080500860081D006840F00100091D086068
:100410000846006840F0100008600846006840F494
:10042000803008600846006840F480100860084684
:10043000006840F0807008600846006840F0805016
:100440000860704700100240000C0140FFF7C4FF35
:100450006FE0002309E03748006880F48050354998
:1004600008601920FFF792FF5B1C022BF3DB0023CF
:1004700009E03048006880F400502E4908601920D7
:10048000FFF784FF5B1C022BF3DB002309E0294804
:10049000006880F48040274908601920FFF776FF44
:1004A0005B1C022BF3DB002309E02248006880F488
:1004B0000040204908601920FFF768FF5B1C022BF1
:1004C000F3DB002309E01B48006880F04000194975
:1004D00008601920FFF75AFF5B1C022BF3DB002397
:1004E00009E01448006880F0800012490860192073
:1004F000FFF74CFF5B1C022BF3DB002309E00D48E8
:10050000006880F480700B4908601920FFF73EFFF7
:100510005B1C022BF3DB002309E00648006880F433
:100520000070044908601920FFF730FF5B1C022BA4
:10053000F3DB8EE70C0C014058050008000000209A
:1005400014000000280100086C05000814000020B9
:10055000640600004401000800A24A0400000000F4
:0C05600000000000010203040607080967
:040000050800018965
:00000001FF
